S01D000041746976696461646531365F46696C74726F4649522E7372656365
S11300000C9434000C9449000C9449000C9449005D
S11300100C9449000C9449000C9449000C94490038
S11300200C9449000C9449000C9449000C94490028
S11300300C9449000C9449000C9449000C94490018
S11300400C9449000C9449000C9449000C94490008
S11300500C9449000C9449000C9449000C944900F8
S11300600C9449000C94490011241FBECFEFD8E032
S1130070DEBFCDBF11E0A0E0B1E0EEE1F5E002C0EB
S113008005900D92AC31B107D9F70E944B000C9446
S11300908D020C940000CF93DF93CDB7DEB7E897C1
S11300A00FB6F894DEBF0FBECDBF8FEF8AB984B907
S11300B086E880937A0080E680937C001EAACE01B5
S11300C001969BAB8AAB5C01C1969DAB8CAB1E01C8
S11300D094E2290E311CEAE7F0E080818064808399
S11300E0EAE7F0E0808186FDFBCFE9E7F0E080817C
S11300F0E1E0F0E0EC0FFD1F9EA9E90FF11D808304
S11301009F5F9EAB8CE1E0E0F1E0DE011896019088
S11301100D928A95E1F7FE01B496F8AFEFAB6F014B
S1130120CE0101964C013BC0C8018A199B0922F1FA
S1130130F801608170E080E090E00E949401F70192
S113014020813181428153810E9420022B013C0194
S1130150F60160817181072E000C880B990B0E94B7
S113016094019B01AC01C301B2010E94F0000E9402
S11301705C01F60171836083F4E0EF0EF11C015021
S11301801109E214F30481F68FEF881A980A92E0B9
S1130190C90ED11CECA9FDA9CE16DF0631F07E01F3
S11301A0F8E0EF0EF11C8401BFCFEFA9F8AD819107
S11301B09191282F220F220F2BB9807C992700249C
S11301C0880F991F001C880F991F001C892F902DE0
S11301D085B98CA99DA9E817F90749F77CCF505830
S11301E0BB27AA270E9407010C94E6010E94D801AC
S11301F038F00E94DF0120F039F49F3F19F426F40F
S11302000C94D5010EF4E095E7FB0C94CF01E92F93
S11302100E94F70158F3BA1762077307840795071A
S113022020F079F4A6F50C9419020EF4E0950B2E47
S1130230BA2FA02D0B01B90190010C01CA01A00134
S11302401124FF27591B99F0593F50F4503E68F18F
S11302501A16F040A22F232F342F4427585FF3CFD0
S1130260469537952795A795F0405395C9F77EF4A1
S11302701F16BA0B620B730B840BBAF09150A1F0EA
S1130280FF0FBB1F661F771F881FC2F70EC0BA0F70
S1130290621F731F841F48F4879577956795B795F8
S11302A0F7959E3F08F0B0CF9395880F08F09927F3
S11302B0EE0F9795879508950E9463016894B11194
S11302C00C941A0208950E94FF0188F09F5798F039
S11302D0B92F9927B751B0F0E1F0660F771F881F47
S11302E0991F1AF0BA95C9F714C0B13091F00E9461
S11302F01902B1E008950C941902672F782F88270A
S1130300B85F39F0B93FCCF3869577956795B39587
S1130310D9F73EF490958095709561957F4F8F4FF6
S11303209F4F0895E89409C097FB3EF490958095FB
S1130330709561957F4F8F4F9F4F9923A9F0F92FA7
S113034096E9BB279395F695879577956795B79525
S1130350F111F8CFFAF4BB0F11F460FF1BC06F5F0B
S11303607F4F8F4F9F4F16C0882311F096E911C01D
S1130370772321F09EE8872F762F05C0662371F03E
S113038096E8862F70E060E02AF09A95660F771F52
S1130390881FDAF7880F9695879597F9089597F946
S11303A09F6780E870E060E008959FEF80EC089517
S11303B000240A9416161706180609060895002440
S11303C00A9412161306140605060895092E0394BA
S11303D0000C11F4882352F0BB0F40F4BF2B11F42E
S11303E060FF04C06F5F7F4F8F4F9F4F089557FD8D
S11303F09058440F551F59F05F3F71F04795880F8F
S113040097FB991F61F09F3F79F087950895121625
S113041013061406551FF2CF4695F1DF08C01616D1
S113042017061806991FF1CF869571056105089482
S11304300895E894BB2766277727CB0197F9089599
S11304400E9433020C94E6010E94D80138F00E9405
S1130450DF0120F0952311F00C94CF010C94D50109
S113046011240C941A020E94F70170F3959FC1F3B2
S1130470950F50E0551F629FF001729FBB27F00D4E
S1130480B11D639FAA27F00DB11DAA1F649F6627A3
S1130490B00DA11D661F829F2227B00DA11D621FF2
S11304A0739FB00DA11D621F839FA00D611D221FAC
S11304B0749F3327A00D611D231F849F600D211D90
S11304C0822F762F6A2F11249F5750409AF0F1F013
S11304D088234AF0EE0FFF1FBB1F661F771F881F7C
S11304E091505040A9F79E3F510580F00C94CF01E4
S11304F00C941A025F3FE4F3983ED4F38695779503
S11305006795B795F795E7959F5FC1F7FE2B880F21
S1110510911D9695879597F90895F894FFCF5D
S113051E6B93513F79C019C09A3D974018C7AFC02D
S10F052E9A3D974079C019C06B93513F6F
S9030000FC
