S00B00004932432E737265635B
S11300000C9434000C943E000C943E000C943E007E
S11300100C943E000C943E000C943E000C943E0064
S11300200C943E000C943E000C943E000C943E0054
S11300300C943E000C943E000C943E000C943E0044
S11300400C943E000C943E000C943E000C943E0034
S11300500C943E000C943E000C943E000C943E0024
S11300600C943E000C943E0011241FBECFEFD8E048
S1130070DEBFCDBF0E948E000C9492000C94000051
S113008095B181E0892785B90895E82E962E8FEFE2
S113009084B91092B9008093B800CCEBD0E00F2E55
S11300A0F4EAFF2EF02D09EB10E00F2EFBEBCF2E20
S11300B0D12CF02D0F2EF4E8BF2EF02D0F2EF4E9E5
S11300C0AF2EF02D0E944000F88288818823ECF73F
S11300D0F8018081887F8830A9F7F6019082B88280
S11300E088818823ECF7F8018081887F883131F496
S11300F0F601E082B88288818823ECF7A8820E9406
S11301004000FFEF29EF80E0F15020408040E1F70C
S113011000C000000E944000E394D4CF62E086E077
S10B01200E944500F894FFCF92
S9030000FC
