S01300004932435F446973706C61792E737265631E
S11300000C943B000C9458000C9458000C94580029
S11300100C9458000C9458000C9458000C945800FC
S11300200C9458000C9458000C9458000C945800EC
S11300300C9458000C9458000C9458000C945800DC
S11300400C9458000C9458000C9458000C945800CC
S11300500C9458000C9458000C9458000C945800BC
S11300600C9458000C945800D202F0022403880324
S1130070A203B903E40311241FBECFEFD8E0DEBF0F
S1130080CDBF11E0A0E0B1E0E8EDF8E002C00590DA
S11300900D92A234B107D9F721E0A2E4B1E001C086
S11300A01D92AA34B207E1F70E9488020C946A04F4
S11300B00C9400008AB1837F8AB98BB18C608BB9B0
S11300C084B1887F84B985B1876085B908958295A4
S11300D0807F8BB92B9885E08A95F1F700002B9AE5
S11300E095E09A95F1F700002B988FE891E001973D
S11300F0F1F700C000000895CF93C82F82958F7048
S11301000E9467008C2F0E946700CF9108952C9A5B
S113011095EC9A95F1F700000E947C002C9885ECF0
S11301208A95F1F700000895CF93DF93EC01885E80
S113013093408832934248F4CE0168EE73E00E9403
S11301403C0480E3860F0E948700C436D1056CF01E
S1130150CE0168EE73E00E943C0464E670E00E9405
S11301603C0480E3860F0E948700CA30D1056CF0FE
S1130170CE0164E670E00E943C046AE070E00E94F4
S11301803C0480E3860F0E948700CE016AE070E0A1
S11301900E943C04805D0E948700DF91CF91089506
S11301A08AE184B980EF8AB92FEF80E792E0215089
S11301B080409040E1F700C000002C982B9880917B
S11301C0170180620E947C008FE496E40197F1F7A6
S11301D000C000008091170180620E947C0087E5C6
S11301E092E00197F1F700C000008091170180624E
S11301F00E947C008091170180620E947C0084E050
S1130200809348018CE00E947C0081E00E947C0085
S11302108FE39FE10197F1F700C0000082E0809333
S1130220490186E00E947C000895EF92FF920F93AB
S11302301F93CF93DF93E62EF42EEC018C010D5F18
S11302401F4F89910E9487002FEF80E792E0215091
S113025080409040E1F700C000000C171D0789F7AB
S1130260C6E0D0E084E10E947C002FEF80E792E0BA
S1130270215080409040E1F700C00000219791F7A1
S113028029E02E1520F080E090E00E9494008FEF8A
S113029090E722E0815090402040E1F700C0000048
S11302A08E2D90E00E9494008FEF90E722E0815021
S11302B090402040E1F700C000008AE30E948700DC
S11302C089E08F1520F080E090E00E9494008F2D4B
S11302D090E00E9494009FEF20E782E0915020403C
S11302E08040E1F700C00000DF91CF911F910F9192
S11302F0FF90EF9008951F93CF93DF93EC0110E0EC
S113030010C0FE01E80FF91F80810E9487002FEFC3
S113031080E792E0215080409040E1F700C0000067
S11303201F5F812F90E0FE0101900020E9F73197D3
S1130330EC1BFD0B8E179F0720F3DF91CF911F91CC
S11303400895CF93DF93882341F0D82FC0E080E154
S11303500E947C00CF5FDC13FACFDF91CF91089528
S1130360CF93DF93882341F0D82FC0E084E10E942B
S11303707C00CF5FDC13FACFDF91CF910895109208
S1130380B9008FEF8093B800089584EA8093BC008D
S1130390ECEBF0E080818823ECF79091B900987F32
S11303A081E0983009F080E00895880F682B60930D
S11303B0BB0084E88093BC00ECEBF0E080818823F0
S11303C0ECF78091B900887F883139F08091B900C9
S11303D0887F803421F080E0089581E0089582E0F0
S11303E0089584E98093BC008FE39FE10197F1F7BE
S11303F000C0000008958093BB0084E88093BC0093
S1130400ECEBF0E080818823ECF79091B900987FC1
S113041081E0983209F080E008950E94C5018823A4
S1130420E1F360E088E60E94D5018823D1F380E0FF
S11304300E94FB018823D9F30E94F1010895EF92F1
S1130440FF920F931F93CF93DF93CDB7DEB7279718
S11304500FB6F894DEBF0FBECDBF0E94C50188233E
S1130460E1F361E088E60E94D5018230D1F7CE0144
S113047001967C0110E0ECEBF0E069EB70E04BEBF3
S113048050E004EC008380818823ECF7DB012C919D
S1130490287FDA019C9111110AC09F77892F8295D8
S11304A08F70382F330F830F880F981B08C0892F44
S11304B082958F70382F330F830F880F981BD701C5
S11304C09C932035F9F61F5FBFEFEB1AFB0A173038
S11304D0C9F68981809346018A81809345018B8185
S11304E0809300018D81809344018E818093430128
S11304F08F818093420127960FB6F894DEBF0FBE1A
S1130500CDBFDF91CF911F910F91FF90EF90089590
S1130510CF93DF93CDB7DEB72E970FB6F894DEBF37
S11305200FBECDBF0E94D0000E94BF010E945A009E
S11305308EE0E3E3F1E0DE01119601900D928A95DD
S1130540E1F78FE00E947C0081E00E947C002FEFA5
S113055081EE94E0215080409040E1F700C000001B
S113056000E010E00F2EF3E02F2EF02D312C6894D4
S1130570442442F8512C0F2EF6E06F2EF02D712CEE
S11305806894882481F8912CA12CB12CCC24C39498
S1130590D12C0730110508F065C1F801EC5CFF4F60
S11305A00C94500481E00E947C002FEF89E698E1CE
S11305B0215080409040E1F700C00000CE01019638
S11305C00E947B011999FECF2FEF81EE94E0215018
S11305D080409040E1F700C000000C2D1D2D42C169
S11305E081E00E947C002FEF89E698E12150804051
S11305F09040E1F700C00000409145016091000186
S113060082E091E00E9415012FEF83ED90E32150E9
S113061080409040E1F700C0000093B183B190FFA7
S113062002C081FDFACF189B03C00A2D1B2D02C006
S1130630082D192D2FEF85EA9EE02150804090402F
S1130640E1F700C000000EC181E00E947C002FEFA2
S113065081EE94E0215080409040E1F700C000001A
S1130660409145016091000185E091E00E941501EF
S1130670809101010E94A1012FEF89E698E12150A8
S113068080409040E1F700C0000023B183B193B1F2
S113069086958170822311F092FDF7CF199910C0CD
S11306A080910101843031F4809100018F5F809347
S11306B0000124C0809145018F5F809345011EC0D5
S11306C0189910C080910101843031F480910001A7
S11306D081508093000112C0809145018150809324
S11306E045010CC081E080930101809147018F5F37
S11306F080934701823011F4062D172D2FEF89E6E0
S113070098E1215080409040E1F700C00000AAC069
S113071080E10E947C0083B123B193B186958170FE
S1130720822311F092FDF7CF199B02C0042D152DE1
S11307302FEF89E698E1215080409040E1F700C016
S1130740000090C084E10E947C0093B183B190FFCB
S113075002C081FDFACF199902C0022D132D2FEF8B
S113076089E698E1215080409040E1F700C0000004
S113077079C088E191E00E947B010F2EF3E0EF2E17
S1130780F12CF02D83E291E00E947B0181E00E9434
S1130790B00121E0E21AF108A9F781E00E94A10169
S11307A00F2EF3E0EF2EF12CF02D85E291E00E9464
S11307B07B0181E00E94A10181E0E81AF108A9F718
S11307C081E00E94B0014EC081E00E947C009FEF56
S11307D025EA8EE0915020408040E1F700C00000FF
S11307E00E940D0288E60E941F0287E291E00E94A7
S11307F07B01809100018A3020F480E090E00E9427
S113080094009FEF20E782E0915020408040E1F780
S113081000C000008091000190E00E9494009FEFCE
S113082020E782E0915020408040E1F700C00000C2
S11308308AE30E948700809145018A3020F480E099
S113084090E00E9494008091450190E00E94940001
S11308509FEF20E782E0915020408040E1F700C004
S11308600000FFCF9FEF29EF80E0915020408040AF
S1130870E1F700C000008DCE97FB072E16F400941C
S113088007D077FD09D00E94560407FC05D03EF43A
S1130890909581959F4F0895709561957F4F089528
S11308A0EE0FFF1F0590F491E02D0994AA1BBB1BCA
S11308B051E107C0AA1FBB1FA617B70710F0A61B5C
S11308C0B70B881F991F5A95A9F780959095BC017D
S10B08D0CD010895F894FFCF57
S11308D80804444F4D5345475445525155415155C9
S11308E8495345585341420843616C63756C616EC2
S11308F8646F002E002000486F726120657861746F
S1130908613A005661692064617220636572746F8C
S10509180000D9
S9030000FC
