S013000041746976696461646531372E737265631E
S11300000C9434000C943E000C943E000C943E007E
S11300100C943E000C943E000C943E000C943E0064
S11300200C943E000C943E000C943E000C943E0054
S11300300C943E000C943E000C943E000C943E0044
S11300400C943E000C943E000C943E000C943E0034
S11300500C943E000C943E000C943E000C943E0024
S11300600C943E000C943E0011241FBECFEFD8E048
S1130070DEBFCDBF0E9460000C94E0000C94000031
S1130080019731F4ECE7F0E080818160808305C062
S1130090ECE7F0E080818E7F8083EAE7F0E0808106
S11300A080648083808186FDFDCF8091790090E01B
S11300B0089587E880937A0080E680937C00089511
S11300C0CF93DF9300D0CDB7DEB78FEF8AB984B971
S11300D022981BB884E085B90E945900EE24EA9462
S11300E0F12C1A9B42C01A8219820F2EF7ECDF2ED4
S11300F0F02D80E090E00E9440008C0181E090E0CF
S11301000E944000081719074CF429813A81801B8A
S1130110910B820F931F9A83898308C029813A81A6
S1130120081B190B020F131F1A830983DA94D110C9
S1130130E0CF89819A81B7010E94B8007A836983EC
S113014089819A81880F991F880F991F8BB989819A
S11301509A81807C9927082E892F000C881F990B7F
S1130160000C881F991F85B9BCCF15B81BB8B9CF2F
S113017097FB072E16F4009407D077FD09D00E9450
S1130180CC0007FC05D03EF4909581959F4F0895CF
S1130190709561957F4F0895AA1BBB1B51E107C061
S11301A0AA1FBB1FA617B70710F0A61BB70B881F03
S11301B0991F5A95A9F780959095BC01CD01089592
S10701C0F894FFCFDD
S9030000FC
