:020000020000FC
:1000000020C0529A539A549A559A569A579A00E693
:1000100000937C0007E800937A00089500E41091B3
:100020007A00102B10937A00089510917A0014FF33
:100030000C94150000E110917A00102B10937A00B7
:1000400008950E9407000E9401000E940E000E9475
:1000500015002091780030917900323318F45A98C5
:100060000C9425005A9A343618F45B980C942500A9
:100070005B9A363918F45C980C9425005C9A383CED
:0E00800018F45D980C9425005D9A0C942500F0
:00000001FF
