:100000000C9443000C944D000C944D000C944D0046
:100010000C944D000C944D000C944D000C944D002C
:100020000C944D000C944D000C944D000C944D001C
:100030000C944D000C944D000C944D000C944D000C
:100040000C944D000C944D000C944D000C944D00FC
:100050000C944D000C944D000C944D000C944D00EC
:100060000C944D000C944D0005A84CCDB2D44EB963
:100070003836A9020C50B9918688083CA6AAAA2A4B
:10008000BE000000803F11241FBECFEFD8E0DEBFCE
:10009000CDBF0E946F000C94DA020C94000001970F
:1000A00031F4ECE7F0E080818160808305C0ECE70B
:1000B000F0E080818E7F8083EAE7F0E080818064D9
:1000C0008083808186FDFDCF8091790090E0089546
:1000D00087E880937A0080E680937C0008950E94F0
:1000E00068008FEF8AB983E084B9812C912C540188
:1000F00080E090E00E944F00EC01C501B4010E9435
:100100001C016B017C01BE017727072E000C880BB8
:10011000990B0E945901A70196010E94240220E038
:1001200030E04EEF52E40E94B0000E942101262FE1
:10013000220F220F2BB9062E672F000C661F770B9C
:10014000000C661F771F65B92DEC3CEC4CE45DE3B9
:10015000C501B4010E94B0004B015C01C9CF5058E9
:10016000BB27AA270E94C7000C94D6010E949D01BC
:1001700038F00E94A40120F039F49F3F19F426F4CE
:100180000C949A010EF4E095E7FB0C949401E92F8E
:100190000E94FB0158F3BA1762077307840795079B
:1001A00020F079F4A6F50C941D020EF4E0950B2EC8
:1001B000BA2FA02D0B01B90190010C01CA01A001B9
:1001C0001124FF27591B99F0593F50F4503E68F114
:1001D0001A16F040A22F232F342F4427585FF3CF55
:1001E000469537952795A795F0405395C9F77EF426
:1001F0001F16BA0B620B730B840BBAF09150A1F06F
:10020000FF0FBB1F661F771F881FC2F70EC0BA0FF4
:10021000621F731F841F48F4879577956795B7957C
:10022000F7959E3F08F0B0CF9395880F08F0992777
:10023000EE0F9795879508950E94AD01E3950C9474
:10024000E7010E9428016894B1110C941E020895E0
:100250000E94030288F09F5798F0B92F9927B75151
:10026000B0F0E1F0660F771F881F991F1AF0BA955A
:10027000C9F714C0B13091F00E941D02B1E0089599
:100280000C941D02672F782F8827B85F39F0B93F8B
:10029000CCF3869577956795B395D9F73EF490950D
:1002A0008095709561957F4F8F4F9F4F0895E8948B
:1002B00009C097FB3EF490958095709561957F4FAE
:1002C0008F4F9F4F9923A9F0F92F96E9BB2793955C
:1002D000F695879577956795B795F111F8CFFAF46C
:1002E000BB0F11F460FF1BC06F5F7F4F8F4F9F4F9D
:1002F00016C0882311F096E911C0772321F09EE8FB
:10030000872F762F05C0662371F096E8862F70E060
:1003100060E02AF09A95660F771F881FDAF7880F3A
:100320009695879597F9089597F99F6780E870E00B
:1003300060E008959FEF80EC089500240A9416165B
:10034000170618060906089500240A9412161306C3
:100350001406050608950C949A010E940302D8F32E
:10036000E894E0E0BB279F57F0F02AED3FE049EC2E
:1003700006C0EE0FBB0F661F771F881F28F0B23A2A
:1003800062077307840728F0B25A620B730B840B61
:10039000E3959A9572F7803830F49A95BB0F661FF3
:1003A000771F881FD2F790480C949302092E03946C
:1003B000000C11F4882352F0BB0F40F4BF2B11F452
:1003C00060FF04C06F5F7F4F8F4F9F4F0895EF9383
:1003D000E0FF07C0A2EA2AED3FE049EC5FEB0E9494
:1003E000C7000E94D6010F90039401FC9058E8E6E4
:1003F000F0E00C949F0257FD9058440F551F59F0A0
:100400005F3F71F04795880F97FB991F61F09F3F01
:1004100079F087950895121613061406551FF2CF2A
:100420004695F1DF08C0161617061806991FF1CF7A
:1004300086957105610508940895E894BB276627A1
:100440007727CB0197F908950E9437020C94D601C3
:100450000E949D0138F00E94A40120F0952311F024
:100460000C9494010C949A0111240C941E020E9485
:10047000FB0170F3959FC1F3950F50E0551F629FEC
:10048000F001729FBB27F00DB11D639FAA27F00DED
:10049000B11DAA1F649F6627B00DA11D661F829F14
:1004A0002227B00DA11D621F739FB00DA11D621FF9
:1004B000839FA00D611D221F749F3327A00D611D16
:1004C000231F849F600D211D822F762F6A2F1124F8
:1004D0009F5750409AF0F1F088234AF0EE0FFF1F2B
:1004E000BB1F661F771F881F91505040A9F79E3F82
:1004F000510580F00C9494010C941E025F3FE4F3CC
:10050000983ED4F3869577956795B795F795E795D7
:100510009F5FC1F7FE2B880F911D9695879597F9E0
:1005200008959F3F31F0915020F487957795679516
:10053000B795880F911D9695879597F908959F9384
:100540008F937F936F93FF93EF939B01AC010E9476
:100550002402EF91FF910E94B3022F913F914F919E
:100560005F910C942402DF93CF931F930F93FF921C
:10057000EF92DF927B018C01689406C0DA2EEF01C6
:100580000E943702FE01E894A5912591359145918D
:100590005591A6F3EF010E94C700FE019701A80143
:1005A000DA9469F7DF90EF90FF900F911F91CF9150
:0805B000DF910895F894FFCFDC
:00000001FF
