:100000000C9443000C944D000C944D000C944D0046
:100010000C944D000C944D000C944D000C944D002C
:100020000C944D000C944D000C944D000C944D001C
:100030000C944D000C944D000C944D000C944D000C
:100040000C944D000C944D000C944D000C944D00FC
:100050000C944D000C944D000C944D000C944D00EC
:100060000C944D000C944D0005A84CCDB2D44EB963
:100070003836A9020C50B9918688083CA6AAAA2A4B
:10008000BE000000803F11241FBECFEFD8E0DEBFCE
:10009000CDBF0E94FB000C944D030C94000080E047
:1000A00090E0282F220F220F2BB99C01022E232F24
:1000B000000C221F330B000C221F331F25B9EFE861
:1000C000F1E03197F1F700C0000001968F3F9105F4
:1000D00041F78FEF90E0282F220F220F2BB99C01C0
:1000E000022E232F000C221F330B000C221F331F64
:1000F00025B9EFE8F1E03197F1F700C00000019772
:1001000050F708958FEF8BB985B92FEF81EE94E00A
:10011000215080409040E1F700C000008BB18095F5
:100120008BB985B1809585B92FEF81EE94E0215090
:1001300080409040E1F700C000000895CF92DF9228
:10014000EF92FF92C12CD12C7601C701B6010E941B
:10015000BD0220E030E04EEF52E40E94500220E069
:1001600030E04EEF52E40E942F010E94A001262FA2
:10017000220F220F2BB9062E672F000C661F770B5C
:10018000000C661F771F65B92DEC3CEC4CEC5DE371
:10019000C701B6010E942F016B017C0120E030E015
:1001A0004FE753E40E949B0188237CF2FF90EF907D
:1001B000DF90CF900895019731F4ECE7F0E0808173
:1001C0008160808305C0ECE7F0E080818E7F8083D2
:1001D000EAE7F0E0808180648083808186FDFDCF46
:1001E0008091790090E0089587E880937A0080E616
:1001F00080937C000895CF93DF9300D000D0CDB7DB
:10020000DEB78FEF8AB983E084B91BB815B80E94B6
:10021000F40069817A818B819C8120E030E846E29C
:1002200054E40E944B02181624F419821A821B828D
:100230001C8281E090E00E94DB00893C18F00E9463
:100240004F00E7CF80E090E00E94DB00893C18F08F
:100250000E948200DECF0E949E00DBCF5058BB2759
:10026000AA270E9446010C9411020E94030238F052
:100270000E940A0220F039F49F3F19F426F40C94EE
:1002800000020EF4E095E7FB0C94FA01E92F0E94BE
:10029000220258F3BA17620773078407950720F004
:1002A00079F4A6F50C9444020EF4E0950B2EBA2FC7
:1002B000A02D0B01B90190010C01CA01A00111246C
:1002C000FF27591B99F0593F50F4503E68F11A1618
:1002D000F040A22F232F342F4427585FF3CF4695A9
:1002E00037952795A795F0405395C9F77EF41F16CB
:1002F000BA0B620B730B840BBAF09150A1F0FF0F95
:10030000BB1F661F771F881FC2F70EC0BA0F621F80
:10031000731F841F48F4879577956795B795F79570
:100320009E3F08F0B0CF9395880F08F09927EE0F05
:100330009795879508950E94D60108F481E0089565
:100340000E94A7016894B1110C94450208950E947F
:100350002A0288F09F5798F0B92F9927B751B0F02B
:10036000E1F0660F771F881F991F1AF0BA95C9F739
:1003700014C0B13091F00E944402B1E008950C9491
:100380004402672F782F8827B85F39F0B93FCCF344
:10039000869577956795B395D9F73EF490958095B6
:1003A000709561957F4F8F4F9F4F0895990F00086B
:1003B000550FAA0BE0E8FEEF16161706E807F90737
:1003C000C0F012161306E407F50798F0621B730BD2
:1003D000840B950B39F40A2661F0232B242B252B53
:1003E00021F408950A2609F4A140A6958FEF811DF6
:1003F000811D089597F99F6780E870E060E0089597
:100400009FEF80EC089500240A941616170618062C
:100410000906089500240A94121613061406050608
:100420000895092E0394000C11F4882352F0BB0F99
:1004300040F4BF2B11F460FF04C06F5F7F4F8F4FFC
:100440009F4F089557FD9058440F551F59F05F3F37
:1004500071F04795880F97FB991F61F09F3F79F0E6
:1004600087950895121613061406551FF2CF469568
:10047000F1DF08C0161617061806991FF1CF8695EA
:100480007105610508940895E894BB2766277727CE
:10049000CB0197F908950E94D60108F48FEF0895D3
:1004A0000E9463020C9411020E94030238F00E9421
:1004B0000A0220F0952311F00C94FA010C9400022A
:1004C00011240C9445020E94220270F3959FC1F3FF
:1004D000950F50E0551F629FF001729FBB27F00DF2
:1004E000B11D639FAA27F00DB11DAA1F649F662747
:1004F000B00DA11D661F829F2227B00DA11D621F96
:10050000739FB00DA11D621F839FA00D611D221F4F
:10051000749F3327A00D611D231F849F600D211D33
:10052000822F762F6A2F11249F5750409AF0F1F0B6
:1005300088234AF0EE0FFF1FBB1F661F771F881F1F
:1005400091505040A9F79E3F510580F00C94FA015C
:100550000C9445025F3FE4F3983ED4F3869577957B
:100560006795B795F795E7959F5FC1F7FE2B880FC5
:10057000911D9695879597F908959F930E94C702BC
:100580000F9007FCEE5F0C94F0020C9400020E94A6
:100590002A02D8F3E894E0E0BB279F57F0F02AED59
:1005A0003FE049EC06C0EE0FBB0F661F771F881FA8
:1005B00028F0B23A62077307840728F0B25A620B38
:1005C000730B840BE3959A9572F7803830F49A9503
:1005D000BB0F661F771F881FD2F790480C94060345
:1005E000EF93E0FF07C0A2EA2AED3FE049EC5FEBA2
:1005F0000E9446010E9411020F90039401FC905842
:10060000E8E6F0E00C9412039F3F31F0915020F4A3
:10061000879577956795B795880F911D96958795DE
:1006200097F908959F938F937F936F93FF93EF9321
:100630009B01AC010E945002EF91FF910E942603A2
:100640002F913F914F915F910C945002DF93CF9384
:100650001F930F93FF92EF92DF927B018C016894BE
:1006600006C0DA2EEF010E946302FE01E894A59114
:100670002591359145915591A6F3EF010E944601D0
:10068000FE019701A801DA9469F7DF90EF90FF90DF
:0E0690000F911F91CF91DF910895F894FFCF45
:00000001FF
