:020000020000FC
:040000000C942C0030
:100054000C94300003E007B90CEF0AB916B1113063
:1000640039F016B1123059F016B11330B9F0F6CF99
:100074004CEF4BB92CD044274BB929D0EFCF5A9A27
:1000840026D05B9A24D05C9A22D05D9A20D05E9AC6
:100094001ED05F9A1CD011271BB9E0CF5A9A17D0F3
:1000A4005B9A15D05C9A13D05D9A11D05E9A0FD0EA
:1000B4005F9A0DD05F980BD05E9809D05D9807D0F9
:1000C4005C9805D05B9803D05A9801D0C7CF5527C8
:1000D40066277AE05A95F1F76A95E1F77A95D1F7B0
:0200E40008957D
:00000001FF
