:020000020000FC
:0200000065C0D9
:02002C0096C07C
:1000340098C04CEF4AB943E044B9789442E0409305
:100044006F0040E0409380004DE04093810060E009
:1000540000E600937C0007E800937A00089501E627
:1000640000937C0007E800937A00089500E410915F
:100074007A00102B10937A00089510917A0014FFDF
:100084000C943F0000E110917A00102B10937A0039
:10009400089560FF0C944B0060E008954091840043
:1000A400509185005BB955B960FF0C94500060E035
:1000B400089540918400509185005BB955B960FF63
:1000C4000C945B0060E008950E941B000E942A00CB
:1000D4000E9438000E943F00209179000E94310064
:1000E4000E9438000E943F0030917900303F00F5B3
:1000F400203FA0F44FEF5FEF4093890050938800B6
:100104004CEF53E04BB955B90E944B0040E050E02E
:100114004BB955B90E944B000C9468004FEF5FEF48
:1001240040938900509388000E9450000C9468000A
:1001340043E04093800045E14093810041E04093D7
:100144006F004FEF5FEF40938900509388000E9447
:100154005B000C946800203F10F461E0189561E0A6
:06016400189561E01895FA
:00000001FF
